:1000000000600020E904000075D6000045D600001D
:1000100000000000000000000000000000000000E0
:10002000000000000000000000000000A5D6000055
:100030000000000000000000D5D60000F9C200005A
:100040006105000065050000690500006D05000000
:100050004905000049050000490500004905000068
:100060007105000075050000790500007D050000A0
:1000700081050000F1D70000890500004905000056
:1000800049050000490500004905000071EA00002B
:100090004905000049050000B9C200008D050000B7
:1000A000E5D10000490500004905000049050000B0
:1000B0005960000049050000490500007DC20000AC
:1003C0006B636667FFFFFFFFFFFFFFFFFFFFFFFF9E
:1003D000F0FFFFFFF70812006C340100FFFFFF0081
:1003E000FFFFFFFFFFFFFFFF00FFFFFFFFFFFFFF1C
:1003F000FFFFFFFF00000000000000000000000001
:10040000FFFFFFFFFFFFFFFFFFFFFFFFFE31FFFFCB
:1004100010B5064C2378002B07D1054B002B02D0DA
:10042000044800E000BF0123237010BD00E2FF1F5D
:1004300000000000C852010008B5084B002B03D093
:100440000748084900E000BF07480368002B03D0B5
:10045000064B002B00D0984708BDC04600000000A6
:10046000C852010004E2FF1FECE1FF1F0000000082
:10047000164B002B00D1144B9D46402292029A1A33
:10048000924600218B460F461348144A121A0FF069
:10049000A4FF0F4B002B00D098470E4B002B00D031
:1004A00098470020002104000D000D48002802D0CC
:1004B0000C4800E000BF0FF061FF200029000DF0A4
:1004C00005F80FF045FFC04600000800006000205E
:1004D000000000000000000000E2FF1F981700204D
:1004E000000000000000000072B60E480E490160D6
:1004F0000A6882F308880D4880470D490D4A0E4B63
:100500009B1A03DD043BC858D050FBDC0B490C4A56
:10051000521A03DD00208850043AFCDA62B609481A
:100520008047000008ED00E000000000DDA80000AA
:10053000F052010000E0FF1FF0E1FF1F00E2FF1F8B
:100540009817002071040000114800471148004727
:10055000114800471148004711480047114800471B
:10056000114800471148004711480047114800470B
:1005700011480047114800471148004711480047FB
:1005800011480047114800471148004711480047EB
:1005900005D7000075D6000045D60000A5D600009E
:1005A000D5D60000F9C20000198B0000298B00008D
:1005B000398B0000498B0000E1970000F99700009B
:1005C000D1A0000009A10000E19C0000FD9C0000FA
:1005D000C9900000A99D0000002934D00123002209
:1005E00010B488422CD301242407A14204D28142B2
:1005F00002D209011B01F8E7E400A14204D28142C2
:1006000002D249005B00F8E7884201D3401A1A433E
:100610004C08A04202D3001B5C0822438C08A04275
:1006200002D3001B9C082243CC08A04202D3001B2B
:10063000DC082243002803D01B0901D00909E3E7A5
:10064000101C10BC7047002801D00020C04307B424
:10065000024802A14018029003BDC046D900000024
:100660000029F0D003B5FFF7B9FF0EBC4243891A49
:100670001847C046002941D010B4041C4C40A44681
:1006800001230022002900D54942002800D540421C
:1006900088422CD301242407A14204D2814202D2F1
:1006A00009011B01F8E7E400A14204D2814202D211
:1006B00049005B00F8E7884201D3401A1A434C080E
:1006C000A04202D3001B5C0822438C08A04202D344
:1006D000001B9C082243CC08A04202D3001BDC086C
:1006E0002243002803D01B0901D00909E3E7101CAD
:1006F0006446002C00D5404210BC7047002806D04C
:1007000003DB0020C043400801E08020000607B45E
:10071000024802A14018029003BDC0461900000023
:100720000029EBD003B5FFF7A7FF0EBC4243891A9F
:100730001847C0467047C0468446101C62468C4627
:10074000191C634600E0C0461FB501F069FF002890
:1007500001D40021C8421FBD10B501F099FE4042EE
:10076000013010BD10B501F05BFF002801DB002057
:1007700010BD012010BDC04610B501F051FF00288A
:1007800001DD002010BD012010BDC04610B501F0F4
:10079000C9FE002801DC002010BD012010BDC046AC
:1007A00010B501F0BFFE002801DA002010BD0120C5
:1007B00010BDC0468446081C6146FFE71FB500F027
:1007C00069FC002801D40021C8421FBD10B500F00B
:1007D000EFFB4042013010BD10B500F05BFC00287B
:1007E00001DB002010BD012010BDC04610B500F097
:1007F00051FC002801DD002010BD012010BDC046C5
:1008000010B500F0FFFB002801DC002010BD012026
:1008100010BDC04610B500F0F5FB002801DA00203D
:1008200010BD012010BDC046002B15D1002A13D1E8
:10083000002900D1002807D003DB0020C043410875
:1008400002E080210906002007B4024801A14018F7
:10085000029003BDE1FEFFFF03B4684601B50298B4
:1008600000F0DEF8019B9E4602B00CBC7047C0460B
:10087000002B11D1002A0FD1002900D1002802D06D
:100880000021C943081C07B4024802A14018029085
:1008900003BDC046A1FEFFFF03B4684601B5029840
:1008A00000F0DAF8019B9E4602B00CBC7047C046CF
:1008B0009C460304F0B51B0C17043F0C150C1E1CC2
:1008C000041C000C7E436B4347434543FB18300C2C
:1008D0001818874202D980235B02ED18030CED182B
:1008E00063465C434A433604360CA1180004801961
:1008F0004919F0BD9E2110B5C905041CFFF78AFFF8
:10090000002803D1201C00F0B1FE10BD9E21C905B6
:10091000201C00F035FD00F0A9FE80231B06C01846
:10092000F3E7C0460000000038B50E4B0C4A041C2B
:100930000D1CFFF735FF002804D1201C291C02F0F4
:10094000B1FC38BD074B064A201C291C02F076F981
:1009500002F0A8FC80231B06C018F2E7C046C04680
:10096000000000000000E04138B50E4B0C4A051CA9
:100970000C1CFFF7F7FE002804D1281C211C00F0F6
:1009800013F838BD80231B06E118281C00F00CF872
:10099000021C0B1C002150429941F2E7C046C046A0
:1009A000000000000000000070B50E4B0C4A0D1C4A
:1009B000041C01F0B3FEFFF7B7FF061C02F0E4FCD5
:1009C000094A0A4B01F0AAFE021C0B1C201C291C20
:1009D00002F034F9FFF7A8FF311C70BDC046C046D5
:1009E000000000000000F03D000000000000F041A9
:1009F00070B5061C081C02F089FC084B064A01F081
:100A00008DFE0D1C041C301C02F0BEFC2B1C221C95
:100A100000F0F8FE70BDC046000000000000F0418C
:100A2000F0B583B0161C1F1C0090019102F0DCFD94
:100A3000041C0D1C221C2B1C301C391CFFF738FF1A
:100A4000009A019B121A8B410899201C0A604B6086
:100A5000291C03B0F0BDC046F0B583B0141C1D1CAA
:100A60000090019102F09CFF221C2B1C061C0F1C05
:100A7000FFF71EFF009A019B121A8B410899301C48
:100A80000A604B60391C03B0F0BDC046F8B54302A4
:100A90004400C50F4E024800240E2A1C9B09000E7C
:100AA000C90FB6098D425BD0221A002A00DC89E00A
:100AB00000281DD1002E00D075E0580704D00F2269
:100AC0001A40042A00D004338021C90419402A1C8A
:100AD00000293AD00134FF2C00D17FE09B015B0A52
:100AE0005B02E4B2E405580AD20720431043F8BD84
:100AF000FF2CE2D08021C9040E431B2A00DD2DE12A
:100B0000311C2020D140821A9640721E96410E431D
:100B10009B1B5801D1D59B019F09381C02F046FD53
:100B2000421F974094425BDC141B1F231B1B3A1C83
:100B30009F40611C3B1CCA405F1EBB411343002405
:100B4000BBE7131EB9D100230022DB08FF2C04D120
:100B5000002B43D08020C00303435B025B0ABFE746
:100B6000211A002940DD002823D0FF2CA5D08020A9
:100B7000C00406431B2900DDEEE0301C2027C840DE
:100B8000791A8E40711E8E4106439B19590100D47B
:100B900093E70134FF2C55D0714901221A400B40D4
:100BA0005B08134389E7013A002AB1D0FF2CA4D196
:100BB00083E7002E00D180E701390029E5D0FF2C22
:100BC000D8D17AE7002A1BD1621CD2B2012A4BDDB0
:100BD0009F1B7A0123D5F71A0D1C9EE700237FE7A0
:100BE0005F4BA41A3B4068E7002946D1611CC8B29C
:100BF000012829DDFF2924D0F3185B080C1C5CE7D1
:100C0000002C13D0FF2818D08024E4045242234340
:100C10001B2A4DDD0123F31A041C0D1C79E7002F5C
:100C200000D07AE70023002200248EE7002B3BD07F
:100C3000D243002AEFD0FF28EAD1331CFF240D1C39
:100C40003BE7FF24002380E7002C5CD1002B00D180
:100C500080E0002E00D130E79B19580100D42CE72A
:100C60003F4A0124134028E7002C15D1002B40D126
:100C7000002E63D0331C0D1C1FE7002C21D1002B4C
:100C800054D0C943002904D0FF284CD01B2958DD7B
:100C900001239B19041C79E7002B19D1002E48D0A1
:100CA000331C0D1CFF2408E7331C041C0D1C04E737
:100CB0001C1C2025D440AA1A93405A1E934123435A
:100CC000A9E7FF282FD08024E40449422343DDE72D
:100CD000FF24002E00D1F0E68022DB08D20313426D
:100CE00004D0F608164201D1331C0D1CDB00FF2492
:100CF000E3E6002E00D1E0E69A1B500100D420E785
:100D0000F31A0D1CD9E6002B0DD0FF24002E00D1C4
:100D1000D3E68022DB08D2031342E7D0F60816425E
:100D2000E4D1331CE2E7331CFF24C6E6331C041C69
:100D3000C3E6802300229B04FF2406E7231C002235
:100D400003E71C1C2027CC40791A8B40591E8B418D
:100D500023439EE7331CB0E6012616E70126D7E6BB
:100D6000FFFFFFFBF0B55F4656464D464446F0B4E4
:100D700046024500C00F85B00F1C760A2D0E804636
:100D800041D0FF2D26D08024240400212643F600E4
:100D90007F3D89468B46F90F7C027800640A000E7D
:100DA00000918A463CD0FF2834D080231B041C438A
:100DB0000023E4007F380193009F4346019A7B4063
:100DC00049469C4611430F2900D971E0764F8900AE
:100DD0007F58BF46002E3ED10822022391469B46F3
:100DE000D9E75A46341CC24601920199022937D0EC
:100DF000032900D1CFE0012900D0ABE053460B40DE
:100E00000022002632E0002E19D104210122894659
:100E10009346C0E7221C531E9A4102320192CBE74F
:100E200001270197002CC7D0201C02F0BFFB431FF5
:100E30009C4076235B420021181A0191BCE7301CCC
:100E400002F0B4FB7625431F9E406D4200232D1A0D
:100E500099469B469FE70C23032199468B469AE7C8
:100E6000D446012367463B40FF2200267602D20586
:100E7000700ADB071043184305B03CBC9046994606
:100E8000A246AB46F0BD80260023F603FF22EDE725
:100E900000220026EAE78020C00306423BD004423D
:100EA00039D1061C26437602760A009BFF22DDE735
:100EB000281A039076016401A64239D3361B1A2200
:100EC00001230120311C5B007600002901DBB442C4
:100ED00001D8361B0343013A002AF3DC741EA641F5
:100EE000341C1C43039A7F32002A27DD630704D099
:100EF0000F232340042B00D00434270103D52B4BB0
:100F0000039A1C408032FE2A0BDD012361460B4010
:100F1000FF220026AAE706437602760A4346FF220E
:100F2000A4E7A40101236746660AD2B23B409DE7CD
:100F3000039F1B22013F03970023C2E77E23039FE9
:100F40005B42DB1B1B2B07DD012361460B400022AC
:100F500000268BE7D446C5E7221CDA40039B9E336C
:100F60009C40231C5C1EA34113435A0704D00F224C
:100F70001A40042A00D004335F0105D501236146DD
:100F80000B400122002671E79E01624601231340B7
:100F9000760A00226AE78026F60326437602760A5E
:100FA0005346FF2262E7C04648180100FFFFFFF7E3
:100FB0004A02430270B55C0A550A43004A001B0E00
:100FC000C60F120EC90FFF2B05D0FF2A08D0012033
:100FD00093420BD070BD0120002CFBD1FF2AF6D12B
:100FE0000120002DF6D101209342F3D1AC42F1D182
:100FF0008E4205D0002BEDD1201C441EA041E9E714
:101000000020E7E74A024302F0B55C0A550A4300B4
:101010004A001B0EC60F120EC90FFF2B31D0FF2A3C
:1010200034D0002B16D1604260418446002A14D08F
:10103000002820D18E4217D1934215DC04DBAC424C
:1010400012D80020AC4212D27042704140420123BB
:1010500018430CE0002AEDD194466F426F41604680
:10106000002805D1002FE5D0704201231843F0BDC0
:101070000020002FFBD14842484140420123184341
:10108000F5E7002CCBD002204042F0E7002DC8D07D
:10109000F9E7C0464A024302F0B55C0A550A43002C
:1010A0004A001B0EC60F120EC90FFF2B27D0FF2AB6
:1010B00029D0002B10D0002A15D194466F426F41E1
:1010C0006046002815D00020002F04D14842484136
:1010D000404201231843F0BD604260418446002A2B
:1010E000ECD00028F2D18E4211D070420123184377
:1010F000F1E7002FF7D0704201231843EBE70220FD
:10110000002CE8D1D3E70220002DE4D1D1E79342AF
:10111000EBDC04DBAC42E8D80020AC42DBD270420E
:101120007041404201231843D5E7C046F0B55F4601
:1011300056464D464446F0B44402460083B00F1C68
:10114000640A360EC50F002E41D0FF2E22D0802318
:101150001B0400201C43E4007F3E82468046391C6D
:101160004B007F02C90F7F0A1B0E8B463BD0FF2B23
:1011700034D0802212041743FF007F3B00215A46DF
:101180006A40019252460A430F2A63D87A48920075
:1011900082589746002C3FD1082202239246984657
:1011A000DDE70195404602282AD1019A0125154024
:1011B000FF2300246402DB05600AED07184328437F
:1011C00003B03CBC90469946A246AB46F0BD002C0D
:1011D00027D10420012282469046C0E7391C4A1ECE
:1011E00091410231CBE70121002FC8D0381C02F019
:1011F000DDF9431F9F4076235B421B1A0021BEE7A7
:10120000032800D1AEE001284FD10198424610409A
:10121000C5B200230024CDE70C2303209A46804664
:101220009DE7201C02F0C2F97626431F9C407642BF
:101230000023361A9A46984691E780240025E40355
:10124000FF23B7E75B463C1C01938846AAE73C1C9A
:101250008846A7E7250C24043A0C240C3F04F61812
:101260003F0C211C231C794353436F435543FB1808
:101270000A0C9B18B1469F4202D980225202AD1837
:1012800009041A04090C521894011B0C611E8C41AC
:10129000920EED181443AD012C43230105D5012214
:1012A00063080120144081441C434B467F33002BCC
:1012B0002DDD600704D00F222240042A00D0043420
:1012C000220103D52D4B1C404B468033FE2B17DDEE
:1012D000019B01251D400024FF236BE78020C003F4
:1012E000044208D0074206D1041C3C436402640A4D
:1012F0005D46FF235EE704436402640AFF2359E767
:101300000198A4010125640ADBB2054052E77E235F
:101310005B424A469B1A1B2B05DD019B01251D40A4
:101320000024002346E7221CDA404B469E339C40B3
:10133000231C5C1EA3411343580704D00F221A40FC
:10134000042A00D004335A0105D5019B01251D4014
:10135000002401232EE701989C010125640A054021
:10136000002327E78027FF03019B3C4364020125FC
:101370001D40640AFF231DE788180100FFFFFFF7E7
:10138000F8B5C20F430244004D024800240E161C5B
:101390009B09000EC90FAD09FF2800D183E001278A
:1013A00079408A425CD0221A002A00DC8EE00028B4
:1013B0001ED1002D00D07AE0580704D00F221A4029
:1013C000042A00D004338021C9040122194032408C
:1013D00000293AD00134FF2C00D183E09B015B0A45
:1013E0005B02E4B2E405580AD20720431043F8BD7B
:1013F000FF2CE1D08021C9040D431B2A00DD31E11F
:10140000291C2020D140821A95406A1E95410D4327
:101410005B1B5801D0D59B019F09381C02F0C6F810
:10142000421F974094425FDC141B1F231B1B3A1C76
:101430009F40611C3B1CCA405F1EBB4113430024FC
:10144000BAE7131EB8D100230022DB08FF2C04D119
:10145000002B47D08020C00303435B025B0ABFE739
:10146000211A002944DD002827D0FF2CA4D0802099
:10147000C00405431B2900DDF2E0281C2027C840DA
:10148000791A8D40691E8D4105435B19590100D4BD
:1014900092E70134FF2C59D0734901221A400B40C6
:1014A0005B08134388E7002D00D07AE777E7013A1D
:1014B000002AADD0FF2CA0D17EE7002D00D17BE724
:1014C00001390029E1D0FF2CD4D175E7002A1BD1C6
:1014D000621CD2B2012A4BDD5F1B7A0123D5EF1AC1
:1014E0000E1C9AE700237BE75F4BA41A3B4063E79F
:1014F000002946D1611CC8B2012829DDFF2924D06A
:10150000EB185B080C1C57E7002C13D0FF2818D0F1
:101510008024E404524223431B2A4DDD0123EB1AAD
:10152000041C0E1C75E7002F00D076E70023002274
:1015300000248AE7002B3BD0D243002AEFD0FF28BB
:10154000EAD12B1CFF240E1C36E7FF2400237CE786
:10155000002C5CD1002B00D180E0002D00D12BE7C6
:101560005B19580100D427E73F4A0124134023E7C1
:10157000002C15D1002B40D1002D63D02B1C0E1C4C
:101580001AE7002C21D1002B54D0C943002904D0E4
:10159000FF284CD01B2958DD01235B19041C75E77B
:1015A000002B19D1002D48D02B1C0E1CFF2403E763
:1015B0002B1C041C0E1CFFE61C1C2026D440B21A57
:1015C00093405A1E93412343A9E7FF282FD080243C
:1015D000E40449422343DDE7FF24002D00D1EBE67C
:1015E0008022DB08D203134204D0ED08154201D15A
:1015F0002B1C0E1CDB00FF24DEE6002D00D1DBE6F9
:101600005A1B500100D41CE7EB1A0E1CD4E6002B29
:101610000DD0FF24002D00D1CEE68022DB08D203BE
:101620001342E7D0ED081542E4D12B1CE2E72B1C56
:10163000FF24C1E62B1C041CBEE6802300229B0471
:10164000FF2402E7231C0022FFE61C1C2027CC40BD
:10165000791A8B40591E8B4123439EE72B1CABE626
:10166000012512E70125D3E6FFFFFFFB4302590ADC
:101670004300C20F1B0E00207E2B0DDD9D2B0CDCCA
:10168000802000040143952B0ADC9620C31AD94020
:101690004842002A00D1081C7047034BD018FBE7D2
:1016A000963B9940F4E7C046FFFFFF7F70B5041EEC
:1016B0003CD0C60F00D04442201C01F077FF9E238F
:1016C000251C1B1A962B0CDC083884406402640A23
:1016D000DBB2321C6402DB05600AD20718431043F8
:1016E00070BD992B0ADD0522121A211CD1400A1C5B
:1016F000011C1B318D40691E8D411543052801DDFC
:10170000421F9540164C2C406A0704D00F2215400A
:10171000042D00D0043461010CD59F23181AFF2832
:101720001AD0A401640AC3B2321CD3E700220023FA
:101730000024CFE7E408FF2B04D06402640ADBB284
:10174000321CC7E7002C04D08020C003044364028D
:10175000640A321CFF23BDE7321CFF230024B9E7D3
:10176000FFFFFFFB10B5041E33D001F01FFF9E23C7
:101770001B1A962B09DC083884406402640ADBB229
:101780006402DB05600A184310BD992B0ADD0522AF
:10179000121A211CD1400A1C011C1B318C40611EF5
:1017A0008C411443052801DD421F9440144A224015
:1017B000610704D00F210C40042C00D004325101E9
:1017C0000AD59F23181AFF2816D09401640AC3B2C1
:1017D000D6E700230024D3E7D208FF2B03D054021E
:1017E000640ADBB2CCE7002A06D08024E403144369
:1017F0006402640AFF23C3E7FF230024C0E7C04656
:10180000FFFFFFFBF8B55F46564644464D46F0B431
:101810000C034D00CE0F610A440F2143C40018038E
:1018200080465800400D8246D80F84464046400A04
:10183000530F0343D0006D0D371C83465246664557
:1018400000D1A4E0AF1A002F00DC09E1002A3BD14F
:10185000184300D0EAE0630700D187E00F2323405C
:10186000042B00D182E0221DA242A44164428023C5
:1018700009191B040B40371C141C002B00D17CE001
:10188000CE4B01359D4200D105E1CD4BE408194016
:101890004807490204430B0B002000211B031A0BCD
:1018A0000B0D6D051B0513436A08C64DFF071D4050
:1018B00015436D006D08291C3943201C3CBC904623
:1018C0009946A246AB46F8BDBC488542C3D08020AD
:1018D00000040343382F00DDF0E01F2F00DD24E17A
:1018E0002020C01B1A1C814682405846F840024303
:1018F000944658464A469040421E9041FB406246FC
:1019000002431F1CA21A9442A4416442C91B091B32
:10191000141C0B029FD549024F0A002F00D1C8E0CA
:10192000381C01F043FE021C083A1F2A00DDB5E016
:101930002821091A201C9740C8400743944095422B
:1019400000DDB2E0551B691C1F2900DDDCE01F2211
:10195000551B3B1C221CAB40CA40AC40651EAC4131
:101960001343CF401C43391C002574E780231B041C
:101970000B40371C002B00D082E7904B4807E4084F
:101980000443C9089D4248D009030B0B84E7AA1AF7
:101990009446002A00DC98E05046002852D0874840
:1019A000854200D157E78020000403436246382A6D
:1019B00000DDFCE01F2A00DD4AE120226046101A0B
:1019C0001A1C82408246914658466246D0404A469A
:1019D00002439046584652469040421E904142462D
:1019E00002436046C3401219A242A44164425918FE
:1019F0000919141C080200D42DE7704B01359D42D3
:101A000000D122E16E4B60081940012323401C1CC9
:101A10000443CB071C4349081DE7231C0B433AD062
:101A200080231B030B431B031B0B35E7013F002FD8
:101A300065D15846221A9442A4416442C91A091B2E
:101A4000141C66E75846184300D104E701225242AD
:101A500094446046002800D0C5E058460219C3E708
:101A6000002F73D1681C4005400D012800DCDEE02A
:101A70005A46A21A9442BF41C81A7F42C71B380275
:101A800000D489E05A46141BA3459241591A524288
:101A90008F1A664641E700230024FDE6271C2838FC
:101AA00087400024954200DC4CE74549AD1A394097
:101AB000D1E6201C01F07AFD203034E75A461A4363
:101AC000531E9A41D2B200271CE7002A00D0DCE066
:101AD000681C4205520D012A00DC8DE0374DA842FA
:101AE00000D1F3E05D462A19A242A441644259188C
:101AF0000919CC07520814434908051CABE62F48C6
:101B0000854200D0E6E6A6E62B1C1F3B3A1CDA40D5
:101B1000131C20296CD03F22551BAF403C43601E54
:101B200084411C430021002595E6381C20381A1CEE
:101B3000C240101C202F5DD04022D71BBB405A460C
:101B40001A43531E9A4102430027DBE6002D3BD087
:101B50001A4DAA4500D193E080252D047F422943E8
:101B6000382F00DDACE01F2F00DD29E12025ED1B23
:101B7000081C261CA840FE40AC400643651EAC4134
:101B80003443F9405D462C1BA34592415B1A5242F7
:101B9000991A55466646BCE6131C3B43141C002BA1
:101BA00000D0BAE60027002100250024E5E65A46C9
:101BB0001A43531E9A41D2B2002314E7FF070000D4
:101BC000FFFF7FFFFFFF0F800D1C254358D0FF4311
:101BD000002F51D1041BA3459241591A5242891A30
:101BE0005546664695E69648854200D0DEE632E6E2
:101BF000002793E70023A2E7081C2043002D00D014
:101C0000C4E0002800D1F7E05846184300D122E68E
:101C100058460219A242A441644259180919141CD9
:101C20000A0200D417E6874B0125194013E6081C69
:101C30002043002D39D1002871D15946194303D0D2
:101C4000191C5C46664606E600270021002494E63F
:101C5000604620381A1CC24060469146202800D1B8
:101C6000ACE04022121A93405A461A43531E9A413E
:101C70004B461A430023B6E6714DAA4500D06FE7E4
:101C8000191C5C4655466646E5E5002D22D10D1C23
:101C9000254377D0D543002D71D15C445C459241FA
:101CA0005918524289185546A4E600284DD1594684
:101CB000194300D194E0191C5C466646604DCAE5A4
:101CC0000C43611E8C41E4B200215BE7051C00213E
:101CD000002452E65A4DAA4554D0554280221004A1
:101CE0000143382D00DD81E01F2D00DD92E0202230
:101CF000501B0A1C84468240201CE8400243904648
:101D000062469440601E844142461443E9405C446C
:101D10005C459241CB185242991855466AE658469E
:101D2000184300D197E55846271ABC429241C81A79
:101D30005242801A020266D55846041BA3459241BE
:101D4000591A5242891A664685E55846184333D0D7
:101D50004807E40804438020C9080003014208D072
:101D6000DD08054205D15946CA085C071443291C01
:101D70006646630FC9001943E400314D6BE5304AF4
:101D80009245AED1191C5C46554664E5002836D014
:101D90005846184310D080254807E408C9082D0389
:101DA00004432942E5D0D8082842E2D15D46EA083A
:101DB0005C071443011CDCE7214D4CE5002353E78D
:101DC0003D1C203D0A1CEA40151C202F34D0402623
:101DD000F71BB9400C43611E8C412C430021D1E616
:101DE00080210027C903164D0024C6E50C43611E5F
:101DF0008C41E4B200218AE7191C5C462BE5191CD2
:101E00005C460F4D27E5031C3B4300D11CE7011C3A
:101E10003C1C20E52020404240190A1CC24090464C
:101E2000202D0BD04020451BA9400C43611E8C4146
:101E300045462C4300216AE70021CBE70021F4E767
:101E4000FF070000FFFF7FFFF0B5564644465F46A0
:101E50004D46F0B41F1C0B031B0B98464B0087B07C
:101E6000041C81465B0DC80F161C9A460090002B7F
:101E700051D06A4B9A4531D08022414652030A43E1
:101E8000630FD2001A43664B90460025E20091464C
:101E90009A44002402953B031B0B9B46FD0F7B00DD
:101EA000311C5B0D019560D05C4A934254D0802177
:101EB000584649030143720FC9001143584A8B46E3
:101EC0009B18F1000020009A04436A4003920F2CF3
:101ED00000D9ADE0534EA4003459A7464046044310
:101EE0006ED1002102250824884689460295D2E752
:101EF000009C0298C34649460194022864D00328F6
:101F000000D1ABE2012800D038E2019A002402405F
:101F10000025A14660E0434623434AD040460028BE
:101F200000D1C0E101F042FB031E272B00DDB3E12D
:101F300028210D1A211C083B4246E9409A400D1CFD
:101F40001543221C9A40A8469146374B00251B1A80
:101F50009A46002402959EE75A4616430320002E17
:101F6000B1D1B34600210220ADE75A4632431BD01F
:101F70005B46002B00D18AE1584601F017FB272869
:101F800000DD7DE12822171A011C321C08395B464E
:101F9000FA408B40171C1F43331C8B40BB46191C57
:101FA000214B1B1A00208EE70027BB460021012091
:101FB00089E70020012504248046814602956AE7CE
:101FC00003250C24029566E7019C0394039D0122DE
:101FD0002A400024114DA146002000212403260B95
:101FE0000C0D2405114B34432D0523402B435B007E
:101FF0005B08D207191C4846114307B03CBC904609
:102000009946A246AB46F0BD0022802424039146A7
:10201000024DE1E700240025A146DDE7FF070000AF
:1020200001FCFFFFC81801000DFCFFFFFFFF0F8040
:102030005546ED1A0495D84500D953E100D14EE13B
:10204000049C0025013C4E4604944746A946584648
:1020500003020C0E1C430902250C23041B0C0091E7
:10206000381C291C0193FEF7B7FA019983464143B6
:10207000381C8A46291CFEF7F3FA330C090419436D
:102080008A450CD95B460919013B8C4200D947E1CE
:102090008A4500D844E1022252429344091953462A
:1020A000CB1A181C291C9846FEF796FA071C0198B3
:1020B000291C784382464046FEF7D2FA36040B04C8
:1020C000360C33439A4509D91B197A1E9C4200D914
:1020D00024E19A4500D821E1023F1B195E463204F3
:1020E0001743380CBB46009E009F51463F0C3204FC
:1020F0005B1A5946BA46120C0F043F0C90465146E3
:102100007A434F434146414356467043CF19160C1C
:10211000BE19B14202D980277F02C019310C1204C6
:102120003604120C4018B618834200D2C4E000D125
:10213000BEE0191A4846861BB145BF417F42CF1BFE
:10214000A74200D113E1291C381CFEF745FA01997A
:1021500002904143381C8946291CFEF781FA330C52
:102160000904194389450CD9029B0919013B8C428A
:1021700000D9FFE0894500D8FCE0029F0919023F21
:1021800002974F46CF1B381C291C0597FEF724FAEF
:10219000071C0198291C784381460598FEF760FAD0
:1021A00036040904360C0E43B14509D936197B1E95
:1021B000B44200D9E0E0B14500D8DDE0023F361975
:1021C000029D4946761A290439430B0457460A0CE6
:1021D0001B0C40464546584355437B437A43EB1816
:1021E000070CDB199D4202D980256D0252191D0C86
:1021F00000041B04000C52191B18964235D300D161
:10220000FCE001231943049E994FF519002D00DCD1
:10221000A1E0480709D00F230B40042B05D00B1D6C
:102220008B42894149428B44191C5A46D20107D539
:10223000904B5C46049E80271C40FF00A346F51986
:102240008D4B9D427ADD039C0122224000248B4D60
:10225000A146C1E680242403474627424CD13C4393
:102260002403240B009A854DB6E63619481EB44265
:102270005ED9011C9642C4D1009E9E42C1D1C2E7E4
:10228000031C283B311C99408B46002188E6301CFA
:1022900001F08CF9203072E6283B211C9940002285
:1022A0008846914651E6201C01F080F920303BE63B
:1022B0000021B14500D33DE7009F5A46B944B945D6
:1022C000BF417F423F19FB18013A9C421ED29842FF
:1022D00000D97EE000D1B5E0191A93462AE7894576
:1022E00000D8ADE64846464642467708D30746083A
:1022F000C0071E438146AAE65846204212D1044335
:1023000024032A1C240B89465C4D65E6A342E3D1D5
:10231000009F4F45DBD9211A93460BE7171CDDE6DA
:102320009B46BCE63C432403240B009A534D53E6E2
:10233000B24259D800D18AE0011C62E75F46C90861
:102340007B07039E0B437C026D0501229946240BFB
:102350006D0D324040E64A4B049FDB1B382B10DDED
:10236000039C0122224000240025A14634E60121DD
:10237000494248E7029304E71F1C21E7019C0394AC
:1023800041E71F2B40DC3F48049F0C1C3A1858467D
:102390009140DC40904020430A1C511E8A41011CA0
:1023A00011435A46DA40131C480709D00F220A404D
:1023B000042A05D00A1D8A42894149425B18111C32
:1023C0001A0234D5039C0122224000240125A14693
:1023D00002E6009F02214942B9448B44B945894134
:1023E00049420919CB18A4E6009D881E6900A9423C
:1023F000AD416D422C19361900913AE7002B00D0FF
:1024000033E70024009437E71F4A049C5D46121B03
:10241000D5402A1C202B1FD01C4E5F46A3199F407D
:102420003B1C19434B1E994111430023BCE75A073B
:10243000C9080A43039F91465B0201221C0B3A40E4
:102440000025C9E54E45C4D89346002172E6009F99
:102450009F42C9D3011C0FE70023E2E78024240335
:102460005F463C432403240B019A8946034DB3E5A0
:10247000FF030000FFFFFFFEFE070000FF07000054
:1024800002FCFFFF1E040000E2FBFFFF3E04000011
:10249000F0B55F4656464D464446F0B40D1C041C4C
:1024A0008046E80F814618030F03000B3F0B83B0F3
:1024B00084461B48009749005E00DF0F490D924695
:1024C000760DBB4681420CD01548864210D00120C3
:1024D000B14215D003B03CBC90469946A246AB46EB
:1024E000F0BD009F01202743F4D10D488642EED174
:1024F000604602430120002AECD10120B142E9D11B
:10250000009B6345E6D1D045E4D1D94506D00029EA
:10251000E0D11C43201C441EA041DBE70020D9E78A
:10252000FF070000F0B55F4656464D464446F0B4FE
:10253000CD0FDE0FAC461D032D0BB146374E0F03FA
:102540004C00AB465D0080463F0B640D92466D0D1E
:10255000B44232D0314EB54235D0002C0ED1384382
:1025600041424141081C002D0BD0002919D1CC4516
:102570002DD0654668420123184318E0002DF6D19E
:10258000281C59460A4353425341002806D1002BC8
:10259000EDD0634658420123184308E00020002B89
:1025A00005D14A46504250414042012318433CBCA9
:1025B00090469946A246AB46F0BD3E1C0643C9D0A4
:1025C00002204042F3E75E461643C6D0F8E7AC422D
:1025D00007DC0BDA61464842484140420123184378
:1025E000E5E76646704201231843E0E75F450AD8F5
:1025F0000ED000205F45DAD265466842684140420D
:1026000001231843D3E76246504201231843CEE723
:10261000D045F8D80020D045EED3C8E7FF0700002A
:10262000F0B556464D4644465F46F0B40D1C83B0A7
:10263000041C0190E80F814618030F03000B3F0BA9
:1026400084463548009749005E00DF0F490D9246E9
:10265000760DB846814234D02F48864236D00029C4
:1026600018D0002E1FD1341C67463A4353425341C1
:10267000002C1FD00020002B05D142465042504173
:1026800040420123184303B03CBC90469946A24601
:10269000AB46F0BD0098044360426041041C002E2C
:1026A000E2D00028E9D1C14515D04F467842012338
:1026B0001843E8E7002BF6D04B4658420123184355
:1026C000E1E7009F02202743DDD1C5E767460220EE
:1026D0001743D8D1C3E7B14204DD4A465042012333
:1026E0001843D0E7B14207DB00986045E4D80AD030
:1026F000009F00206745C6D24F467842784140424D
:1027000001231843BFE7019A5245D5D8019A00200A
:102710005245F1D3B7E7C046FF070000F0B5564673
:1027200044465F464D46F0B41F1C0B031B0B9A46F4
:102730004B0087B0041C80465B0DC80F161C02932B
:102740008146002B68D0694B0299994232D0802291
:10275000534652031A43D200630F1A439246644A07
:10276000E000891880460291002400253B031B0BE2
:102770009B467800FB0F321C400D039300D175E09F
:102780005A4B984269D08022594652030A43730F2C
:10279000D2001A43564B9346C018F2000023039907
:1027A0004E4671401C430F2C00D9A9E0514EA400A5
:1027B0003459A74653461C4300D087E00025AA465B
:1027C000A84608240225D1E74946022D6CD0032DE6
:1027D00000D117E2012D00D058E10D40EDB20024E8
:1027E000A9460023A0460020002125030A0D1C0550
:1027F0002D0B1205404B2A43134023435B004C46EC
:102800005B08E207191C4046114307B03CBC9046E8
:102810009946A246AB46F0BD5346234350D053469B
:10282000002B00D184E1504600F0C0FE031E272B90
:1028300000DD76E128210D1A211C083B5246E940B3
:102840009A400D1C1543221C9A40AA4690462B4BD9
:1028500000241B1A0293002588E75B461E430323CE
:10286000002E9CD1B3460022022398E75B463343F7
:1028700021D05846002800D14EE100F097FE2728CD
:1028800000DD42E128210F1A021C311C083A5B4688
:10289000F94093400F1C1F43331C9340BB461A1C46
:1028A000164B181A00237AE701230B40002499469F
:1028B000A0460E4B97E70027BB46002201236EE798
:1028C000002104248A46884601254FE70C2403256D
:1028D0004CE700258024A9462403A846034B82E741
:1028E000DA46904603991D1C6FE7C046FF070000BB
:1028F00001FCFFFF08190100FFFF0F800DFCFFFF27
:10290000029F160C381804904046070C0004000C77
:102910001204120C031C5343041C3D1C7443554306
:1029200098463B1C73436419A44644460293230C07
:1029300063449D4204D9029D802464022D190295AE
:102940001D0C039545462C041B04240C1C190594EE
:102950005C46230C051C58432404240C8446381C74
:10296000604365435F438146CC44280C6044BB46CA
:10297000814502D980277F02BB442D04070C2D0C12
:10298000000440195546BC462F04E3448446280CF5
:102990003D0C2F1C5743B8462F1C77434243B94682
:1029A00047463F0C9144BA46D14446434A4502D972
:1029B00080225202B6184F463A0CB6183A044746DF
:1029C0003F043F0CB8462F1C67435D4344435843C4
:1029D00065190190380C2D184244B846AC4204D910
:1029E000019880235B02C0180190039C029F201C69
:1029F0006044C0196045A44147466442A4462B0484
:102A00003C049946240C4C44A046D8448018C24645
:102A1000E24490429241574652429146F219E245B1
:102A2000BF417F424B46BC46D845BF41D4187F4288
:102A300063461F432D0C7F19B24292414C45AD4174
:102A400052426D421543019E7D19AB19E20D5B02A6
:102A5000059F134342023A439A46531E9A41C30DBF
:102A6000101C18436402204380465046C0010DD517
:102A7000454601225646049C6B082A401A43F30738
:102A800001341A43760804949046B246049E634F7C
:102A9000F319002B61DD404640070BD00F2244465E
:102AA0002240042A06D04246043242458041404238
:102AB000824490465546ED0107D5594B5646049F32
:102AC00080201E40C000B2463B18564A934200DDAB
:102AD000EAE644465546E2086807104301226C02C4
:102AE0005B050A408046240B5B0D91467BE6DA4687
:102AF00090461D1C69E680242403574627421CD1BA
:102B00003C432403240B484B6DE6031C283B311C3B
:102B100099408B460022C3E6301C00F047FD203070
:102B2000ADE6283B211C994000228A4690468EE65D
:102B3000201C00F03BFD203078E65846204207D1AB
:102B4000044303992403240B89469046364B4AE6F6
:102B50003C432403240B344B45E6344B049E9B1B1F
:102B6000382B06DD01230B4000249946A0460023A4
:102B700039E61F2B25DC049C2D4D46466019524634
:102B800044468640DC4082405746301C2243DF40AA
:102B9000441EA04102433B1C540709D00F201040A3
:102BA000042805D0101D9042924152429B18021CED
:102BB0001D021AD501230B4000249946A04601238B
:102BC00011E61C48049C5546001BC540281C202BC0
:102BD00016D0194E5746A21997403A1C43461A433D
:102BE000531E9A4102430023D6E758075B02D208DE
:102BF0001C0B01230B401043994680460023F2E54D
:102C00000022EBE7802424035046012304431940AB
:102C10002403240B8946044BE5E5C046FF0300006E
:102C2000FFFFFFFEFE070000FF07000002FCFFFFA2
:102C30001E040000E2FBFFFF3E040000F8B55F4603
:102C4000564644464D46F0B40C034D00CF0F610A82
:102C5000440F2143C4001803DE0F8046B4464646A5
:102C60005800760A530F3343D600D14A6D0DBA4649
:102C7000400DB346904200D1F5E062460126724015
:102C80009446674500D1ABE02F1A002F00DC11E11C
:102C900000283ED15846184300D0F1E0600700D12B
:102CA00097E00F232340042B00D122E1221DA242F2
:102CB000A4416442802309191B04012750460B409C
:102CC0000740141C002B00D179E0B94B01359D421F
:102CD00000D10BE1B74BE40819404807490204430F
:102CE0000B0B002000211B031A0B0B0D6D051B05A0
:102CF00013436A08B04DFF071D4015436D006D0872
:102D0000291C3943201C3CBC90469946A246AB4640
:102D1000F8BDA7488542C1D0802000040343382F66
:102D200000DDFDE01F2F00DD31E12020C01B1A1C5B
:102D30005E468240FE40324394465A468240101C12
:102D4000421E9041FB40624602431F1CA21A94425D
:102D5000A4416442C91B091B141C0A029ED54902E6
:102D60004F0A002F00D1D6E0381C00F01FFC021CD7
:102D7000083A1F2A00DDC3E02821231C091A9740C6
:102D8000CB401F439440954200DDC0E0551B691CB9
:102D90001F2900DDEAE01F22551B3B1C221CAB4013
:102DA000CA40AC40651EAC411343CF401C43391CA4
:102DB000002573E780217E4D0027C90300247C4B4A
:102DC0004807E4080443C9089D4250D009030B0B8F
:102DD00087E780231B04012752460B40174071E709
:102DE0002A1A9446002A00DCA1E0002854D070483A
:102DF000854200D152E78020000403436046382812
:102E000000DD0EE11F2800DD57E162462020801A18
:102E10001E1C8640B1465E46D6404A4632435E4658
:102E200086409046301C421E904142460243604616
:102E3000C3401219A242A441644259180919141C32
:102E4000080200D42AE75A4B01359D4200D131E1F6
:102E5000584B60081940012323401C1C0443CB0736
:102E60001C4349081AE71E4300D00AE705E7231C64
:102E70000B433BD080231B030B431B031B0B30E78F
:102E8000013F002F6DD15E46A21B9442A4416442D3
:102E9000C91A091B141C60E75846184300D1FDE607
:102EA00001267642B4446046002800D0D0E05E4659
:102EB0003219BFE7002F00D080E0681C4005400DAC
:102EC000012800DCE8E05A46A21A9442BF41C81A21
:102ED0007F42C71B3E0200D498E05846041BA3451E
:102EE0009241591A52428F1AE2463AE700230024CF
:102EF000F7E680231B04012756460B403740E1E6E6
:102F0000271C283887400024954200DC3EE72949E9
:102F1000AD1A3940C2E6201C00F048FB203026E7FD
:102F20005A461A43531E9A41D2B200270EE7002A8E
:102F300000D0DEE0681C4605760D012E00DC90E036
:102F40001B4DA84200D1F5E05E463219A242A441D1
:102F5000644259180919CC07520814434908051C42
:102F60009CE61348854200D0D9E697E62B1C1F3B10
:102F70003E1CDE40331C20296FD03F22551BAF4042
:102F80003C43601E84411C430021002586E6381C1A
:102F900020381E1CC640301C202F60D04022D71B7A
:102FA000BB405A461A43531E9A4102430027CDE6BE
:102FB000FF070000FFFF7FFFFFFF0F80002D37D0CE
:102FC000B64DA84200D18FE080252D047F422943D1
:102FD000382F00DDA8E01F2F00DD24E12025ED1BA8
:102FE0000E1CAE40B046261CFE404246AC40164386
:102FF000651EAC413443F9405A46141BA345924127
:103000005B1A5242991A051CE246A6E6131C3B4382
:10301000141C002B00D0A4E600270021002500246A
:10302000CDE65A461A43531E9A41D2B2002300E716
:103030000D1C254358D0FF43002F51D15A46141B75
:10304000A3459241591A5242891A051CE24684E668
:103050009248854200D0D1E620E6002790E7002381
:103060009FE7081C2043002D00D0C2E0002800D1BB
:10307000EFE05846184300D110E658460219A24224
:10308000A441644259180919141C0A0200D405E627
:10309000834B0125194001E6081C2043002D38D13F
:1030A00000286FD15946194303D0191C5C46E246EB
:1030B000F4E500270021002481E6604620381A1C30
:1030C000C2406646101C202E00D1AAE04022921B6E
:1030D00093405A461A43531E9A4102430023A8E6DE
:1030E0006E4DA84200D073E7191C5C46051CE246F1
:1030F000D4E5002D22D10D1C254376D0D543002DDB
:1031000070D15C445C459241591852428918051CA3
:1031100096E600284CD15946194300D14AE6191CBD
:103120005C46E2465D4DB9E50C43611E8C41E4B25C
:10313000002161E7051C0021002440E6574DA8420C
:1031400053D05542802216043143382D7BDC1F2D8D
:1031500000DD8CE02022561B0A1CB446B240261C1F
:10316000EE403243904662469440661EB441424669
:103170001443E9405C445C459241CB185242991893
:10318000051C5DE65846184300D187E55E46A71B3F
:10319000BC429241C81A5242801A060260D5584673
:1031A000041BA3459241591A5242891AE24675E519
:1031B0005846184333D04807E40804438020C90820
:1031C0000003014208D0DD08054205D15946CA086E
:1031D0005C071443291CE246630FC9001943E4004D
:1031E0002E4D5BE52D4A9042AFD1191C5C46051C63
:1031F00054E5002830D05846184310D080254807A1
:10320000E408C9082D0304432942E5D0D808284220
:10321000E2D15D46EA085C071443011CDCE71F4D60
:103220003CE5002355E73D1C203D0E1CEE40351CBF
:10323000202F2ED04026F71BB9400C43611E8C4135
:103240002C430021D8E60C43611E8C41E4B20021DE
:1032500090E7191C5C4621E5191C5C460F4D1DE5E5
:10326000031C3B4300D124E7011C3C1C16E520262F
:10327000764276190A1CF2409046202D0BD040264B
:10328000751BA9400C43611E8C4145462C4300210F
:1032900070E70021D1E70021F4E7C046FF070000F6
:1032A000FFFF7FFF70B50B1C124C09030E0B59007A
:1032B000021C490DDD0F0020A14211DD0E488142A4
:1032C0000FDC8020400306430C48401A1F280BDD0A
:1032D0000B4A521AD640321C5042002D00D1101C0D
:1032E00070BD084BE818FBE7074BC240C9188E4079
:1032F0003243F1E7FE0300001D0400003304000028
:1033000013040000FFFFFF7FEDFBFFFFF8B5041E75
:1033100031D0C70F00D04442201C00F047F9184DAF
:103320002D1A0A2819DD0B38844024036D05240B5F
:103330006D0D3A1C0026002000210B0D2403240BE8
:103340001B0523430F4C2D051C402C4364006408CF
:10335000D307211C301C1943F8BD061C1536231C4D
:10336000B3401E1C0B23181AC44024036D05240B04
:103370006D0D3A1CDFE70022002500240026DAE765
:103380001E040000FFFF0F8010B5041E28D000F0BF
:103390000DF9154A121A0A2815DD0B38844024034A
:1033A0005205240B520D0023002000212403181C79
:1033B0000B0D240B1B0523430C4C12051C4014431E
:1033C0006400610810BD031C1533211C99400B1CBF
:1033D0000B21081AC44024035205240B520DE3E7C5
:1033E000002200240023DFE71E040000FFFF0F80FF
:1033F00043001B0E5A1C4102D2B270B54C0AC50FD5
:10340000012A17DDE02292006407090B98180022B8
:1034100000231E0D221C34050C431B4940054008A7
:103420002140014349004908ED070B1C2B43101CA8
:10343000191C70BD002B15D1002C1CD0201C00F0D5
:10344000B5F80A281ADC0B21091A231CCB40191CD9
:10345000031C15339C400D4B0903181A4005090B3A
:10346000400DD4E7002C03D06407090B0848CEE7D1
:1034700007480021CBE700200021C8E7011C0B39D9
:103480008C40211C0024E6E7FFFF0F808903000029
:10349000FF070000F0B54B000D03420F5B0D6D0AF6
:1034A00015435A1C5205CC0FC600520D012A27DDC8
:1034B000394FDA19FE2A1ADC002A35DD8001ED00C9
:1034C000431E98412843760F3043430704D00F230F
:1034D0000340042B00D004308021C904014027D0D0
:1034E0000132FF2A1DD083015B0AD1B201E0FF2126
:1034F00000235802C905400AE40708432043F0BDF1
:10350000002B06D1354311D10021002043025B0A74
:10351000EFE72E43EBD08020ED0080042843FF220C
:10352000D3E7FF210023E4E717320DDA052000225C
:10353000C008D1B2FF2AE9D10028D9D08023DB030B
:1035400003435B025B0AD4E780221449120415434B
:10355000C91A1F290DDC124A371C9B18281C9F40D2
:1035600098403B1C5A1E93411843CE4030430022E2
:10357000ABE70C4F2A1CFF1AFA40171C202909D070
:10358000094A98188540281C3043461EB0413843EC
:1035900000229AE70020F7E780FCFFFF9E0300006F
:1035A00082FCFFFF7E030000A2FCFFFF1C21012321
:1035B0001B04984201D3000C10391B0A984201D316
:1035C000000A08391B09984201D30009043902A2F4
:1035D000105C40187047C04604030202010101015B
:1035E0000000000000000000F0B544465F4656466B
:1035F0004D46F0B41C1C85B0002900DADBE00F1C3E
:103600000021061C8A46101C191C002C00DAC9E097
:103610000196009089468046002951D1B84200D8D1
:1036200071E0FFF7C3FF002809D020234546311C75
:103630001B1A85408740D940A8460F438640424622
:10364000150C13041B0C291C381C9B46FCF7C4FFEB
:103650005B464343041C291C381C9946FDF700F8BF
:10366000330C08041843814509D94044631E804542
:1036700000D978E1814500D875E1023C40444946D3
:10368000411A8946081C291CFCF7A6FF5A464243EA
:10369000071C291C48469346FCF7E2FF3604090440
:1036A000360C0E43B34507D946447B1EB04502D8BD
:1036B000023FB34500D81F1C24042743002403E025
:1036C000B94211D9002400275246381C211C002A77
:1036D00003D03B1C00215842A14105B03CBC9046A0
:1036E0009946A246AB46F0BD081CFFF75FFF041EDB
:1036F00000D0BFE0B94500D242E1019D0099071C0E
:103700008D424741E0E7002804D101200021FCF769
:1037100063FF80464046FFF749FF002852D14146EB
:1037200044460B043C1B1B0CA3460D0C00930124C8
:10373000291C5846FCF750FF009F81464743291C2F
:103740005846FCF78DFF330C090419438F4208D902
:103750004B464144013B884502D88F4200D91AE1CB
:103760009946C91B8B46081C291CFCF735FF009B9A
:10377000291C4343071C58460093FCF771FF36048D
:10378000009D0904360C0E43B54207D946447B1E02
:10379000B04502D8023FB54200D81F1C49460E046E
:1037A000374391E75246D243031C0C1C924600213A
:1037B0005842A1412CE7002746428F41012149424E
:1037C0008A4620E720231B1A4246351C82403C1CB7
:1037D000DD40DC4087402B1C150C3B43291C8640F8
:1037E000201C009317049046FCF7F6FE3F0C011CCA
:1037F000794381468B46201C291CFCF731FF009C35
:103800000904230C19438B450CD94B464144013B19
:10381000884500D9BDE08B4500D8BAE0022252426B
:10382000914441445C460C1B201C291C0194FCF76C
:10383000D3FE391C4143041C8B460198291CFCF71C
:103840000FFF009A090413041B0C19438B4509D977
:103850004144631E884500D997E08B4500D894E029
:10386000023C41445B46CB1A49469B460B041C4331
:1038700000975DE7009D20231B1A4A468240DD40E9
:103880001543391C009AD94082408846311C009269
:10389000D9403A1C82400B1C134301932F0C2B047C
:1038A0001B0C391C40460293FCF796FE029A814697
:1038B0004243391C40469346FCF7D2FE019A090464
:1038C000130C19438B450AD94B464919013B8D42CC
:1038D0005DD88B455BD902235B42994449195A460E
:1038E0008A1A101C391C0392FCF776FE029B804654
:1038F0004343391C03989B46FCF7B2FE019A090426
:1039000013041B0C19438B450AD943464919013B43
:103910008D4238D88B4536D902235B4298444919E9
:103920005D464D1BAB464946009D0F04424617437A
:103930002A04120C3B042D0C1B0C380C111C59438F
:1039400042436B436843D3180D0C5B198C469A4273
:1039500002D98022520280181D0C401983450CD3D5
:1039600003D00024B0E61C1C89E665462A041B042B
:10397000120C9B18A6409E42F3D2013F0024A3E6FE
:1039800000240127A0E69846CAE71C1C6AE799466E
:10399000A5E7994646E70222524291444144E0E6B7
:1039A000F0B55F4656464D464446F0B40D1C85B012
:1039B000061C924698460290019103921F1C141C0B
:1039C0008346A946002B59D1AA4269D9101CFFF79A
:1039D000EDFD00280AD020231B1A311CD940854058
:1039E0000B1C2B43864084409946B346250C230488
:1039F0001B0C291C48469846FCF7EEFD4646071C62
:103A00004643291C4846FCF72BFE5A460904130C72
:103A100019438E4209D909197B1E8C4200D957E1FE
:103A20008E4200D854E1023F0919891B8946081CBF
:103A3000291CFCF7D1FD43464343061C291C48467C
:103A40009846FCF70DFE5A46130409041B0C194353
:103A5000884508D90919731E8C4200D936E1023E07
:103A6000884500D832E1380430430027391C05B0BE
:103A70003CBC90469946A246AB46F0BD019A9342A3
:103A800062D8181CFFF792FD041E60D1019B9F4273
:103A900000D22CE1029F03998F4260410027E5E7A5
:103AA000002A04D101200021FCF796FD041C201CF3
:103AB000FFF77CFD002800D0B9E023042D1B1B0C70
:103AC000A946260C98460127311C4846FCF784FD80
:103AD00041464143051C8A464846311CFCF7C0FD5F
:103AE0005A460804130C1843824507D900196B1E67
:103AF000844202D8824500D910E11D1C5346C31AE6
:103B0000181C311C9A46FCF767FD4146414381462B
:103B100088465046311CFCF7A3FD5A46130409049D
:103B20001B0C194388450BD94B460919013B8C42A4
:103B300000D9CFE0884500D8CCE002235B4299440D
:103B400028044946084391E7002700208EE72023F8
:103B50001B1A424657468240DF4017435246824076
:103B60000192321CDA40291CD9408540131C2B439A
:103B700002933D0C3B041B0C8846081C291C9A46EA
:103B8000FCF72AFD534643438146291C40469B4689
:103B9000FCF766FD029A0904130C19438B4506D9FC
:103BA0004B46C919013B8F4200D8ABE099465A46B3
:103BB0008A1A101C291C9346FCF70EFD53464343FA
:103BC000291C804658469A46FCF74AFD029A090489
:103BD00015042D0C29438A4506D94346C919013BD2
:103BE0008F4200D886E098465746CF1BBA464946D2
:103BF000019F0804424610433D042D0C03043F0C72
:103C00001B0C020C291C594355437B437A43EB1888
:103C10000F0CDB198C469D4202D980277F02D219F6
:103C20001D0C521992455FD356D000271EE7202362
:103C30001B1A311C2F1CD940DF4085400B1C8440CF
:103C40002B4386400193B3462304260C1B0C381CDF
:103C5000311C9846FCF7C0FC42464243051C311C0F
:103C6000381C9146FCF7FCFC019F09043B0C1943EE
:103C7000894507D909196B1E8C424DD889454BD906
:103C8000023D09194A468A1A101C311C9246FCF75B
:103C9000A3FC43464343071C311C50469946FCF79E
:103CA000DFFC019A090413041B0C1943894507D949
:103CB00009197B1E8C422DD889452BD9023F091941
:103CC0004B46CB1A2D0499462F43FDE61E1CCAE62F
:103CD0001F1CAAE6994633E761460A041B04120C2E
:103CE0009B18A6409E42A0D201380027BEE60027BE
:103CF0000120BBE68A4500D875E702235B42984461
:103D0000C91971E78B4500D850E702235B429944FB
:103D1000C9194CE71F1CD3E71D1CB3E7023D00196E
:103D2000ECE6C04608B5094A094BD058094901409C
:103D30008020C0040143D15004F002FC031C06485B
:103D4000E1214902022204F07BF908BD0070044021
:103D500004100000FFFFFFF30040054000B585B0F0
:103D600002A80D49083106220CF02EFB00236A46FA
:103D7000137080235B0201930849094B094AD15013
:103D800002A804F059FC684604F07EFB064A074B83
:103D90001A6005B000BDC0462818010000000710D9
:103DA0004410000000700440006CDC0210E0FF1FB3
:103DB000F8B508F0E7FA3A48826F3A4B1A40826742
:103DC000394A94681C40802189000C4394605468EF
:103DD0001C402143516094691C40802149000C43E0
:103DE0009461D4691C400C43D461304C25681D405B
:103DF0000D43256065681D400D436560456E1D409F
:103E00000D434566056E1D400D430566466F1E4019
:103E10008025ED002E4346672548466C1E403543FD
:103E2000456445681D400D434560A068184008433F
:103E3000A06010680340194311601E4D1E4C281CE1
:103E40000621221C05F044F9281C0721221C05F03C
:103E50003FF91A4E301C0021221C05F039F9301CA4
:103E60000121221C05F034F9154F381C1921221CA0
:103E700005F02EF9381C1821221C05F029F91148EB
:103E80000121114A05F024F9104C301C0221221C9A
:103E900005F01EF9281C0021221C05F019F9F8BDB7
:103EA00000D00440FFF8FFFF00B0044000C0044011
:103EB00000A0044080F00F4048190100C0F00F40FE
:103EC00000F10F4040F00F404C1901005019010063
:103ED00010B584B0041C0D480BF04EFF80B20B28C7
:103EE00012D901A963880B8023884B80A3885B4289
:103EF0008B802389CB80E3880B8163895B424B8174
:103F000002480C220BF078FE04B010BD000A00201D
:103F1000F0B557464E464546E0B4A0B0041C0D1C13
:103F20000026624B604A8018594108900991F2E1DD
:103F30007302614A9B5C002B00D1EBE173029B5C36
:103F4000012B6ED17302D3189A69DB69AB4200DD95
:103F5000E0E102D1A24200D9DCE17702564BDF1941
:103F60003C637D63554B1B680E93DB170F930E9AD2
:103F70000F9B12196B41BA62FB624D484D491218F2
:103F80004B413A627B62BC63FD630899099A3964CC
:103F90007A643B7A002B40D10822D21994465368A8
:103FA000109300201190BA6AFB6A109811991218A8
:103FB0004B41BA62FB62614649681291002213923A
:103FC0003A6A7B6A1298139912184B413A627B62E3
:103FD00061464968149100221592221C2B1C1498EA
:103FE000159912184B413A637B6339691691002287
:103FF0001792221C2B1C1698179912184B41BA6362
:10400000FB6339691891002219923A6C7B6C1898FD
:10401000199912184B413A647B6473020221264AB3
:1040200099547302244AD3189A6ADB6AAB4217DCAC
:1040300001D1A24214D871021F4B5918CA680C92C0
:1040400000230D930C9A0D9B12196B418A62CB626F
:104050001B4802F0CDFA002802D11A4804F046F8B5
:10406000194B1B78022B08D0174B1B78032B04D05D
:10407000154B1B78042B00D0B0E073020E4AD31806
:104080001A6C5B6CAB422CDC01D1A24229D80F4BDD
:104090001B78002B25D10E4B1B69DF071AD4012298
:1040A0000A4B1A701DE0C04600A493D60000000021
:1040B000A86100000000000030E6FF1F1CE6FF1FA3
:1040C000D13E0000A019010030EAFF1F42EAFF1FA5
:1040D00040F00F407302964AD31808980999186463
:1040E00059647302924AD3189A6BDB6BAB4200DDC2
:1040F00074E001D1A24271D871028D4B59180A693E
:104100000A9200230B930A9A0B9B12196B418A6344
:10411000CB63FC277F00CB195A88013292B25A80B8
:104120005A881B8892B29A4258D3824B5B689BB2E2
:104130001BA80380804B5B689BB269466E310B8085
:104140000288944673027A4AD2189146F8235B009B
:104150001A1C4A4453886746FB1A9BB29A460B883E
:104160001788DB1B9BB29C46008880B25080098870
:1041700089B21180F4277F003B1C4B441A686244CB
:104180001A601A685046121A1A601A685B689A42D6
:1041900007D00022694B1A704B460899099A196496
:1041A0005A647202624B9A18F4277F00D319196877
:1041B0005960F932FF32002151801868FFF7A6F8E4
:1041C0005A4B594AFEF7AAFAFFF764F91F901D945B
:1041D0001E955B481DA90C220BF00EFD7302544A7C
:1041E000D3181A6B5B6BAB4256DC01D1A24253D899
:1041F00071024F4B5918C868049000220592049A26
:10420000059B12196B410A634B63F8277F00CB199A
:10421000DA88013292B2DA80DA889B8892B29A42C6
:1042200033D3444B5B689BB21CA90B80424B5B6849
:104230009BB26A46723213800888844673023C48F7
:10424000C01881464F447B886046C31A9BB29A4689
:10425000138838881B1A9BB29C46098889B27980DA
:10426000128892B23A80F4204000031C4B441A6832
:1042700062441A601A685146521A1A601868FDF7AB
:1042800015FA1D900023FB8001E02E4B1D932E4854
:104290001DA904220BF0B0FC7302254AD3181A6A38
:1042A0005B6AAB4236DC01D1A24233D87102204BAB
:1042B00059188C64CD64CA68069200230793069A45
:1042C000079B12196B410A624B62204B1B78002B33
:1042D00003D001221E4B1A701CE01E4B1B681E4FA0
:1042E000B846042200929B000193012702974046A2
:1042F0001A491B4B04F0DEFA1A480221424604F028
:1043000053FA124B1F70184A1723136017480021E5
:1043100003F0B4FF0136012E00DC09E620B01CBC1E
:1043200090469946A246F0BDDFDA7892520F303FB0
:1043300030E6FF1F009003400080034042EAFF1F69
:10434000D80900200000C07F2C1100202AE6FF1FA2
:1043500020E6FF1F08E0FF1F4411002010B00340BB
:104360001CE2FF1F00800040240B002000B003402F
:1043700070B5284A1F2313602748002103F07EFFF1
:10438000002300202549264C03E09A00125980188A
:1043900001330A689342F8D3204B1968FCF71CF9E3
:1043A000204B18800024204D2EE063025B5D022B21
:1043B00029D11E480BF0E0FC012803D91C4B1B78C7
:1043C000002B1BD06302184AD31860331B78002BD4
:1043D00010D16302D618B26CF36C32657365331C6E
:1043E00058330D221A70E0B2402106F0D1FE60363B
:1043F000012333700E4B1B78002B04D00B48094966
:1044000002220BF0F9FB0134012CCEDD0022094B16
:104410001A7070BD240B002000B0034008E0FF1F9D
:104420001CE2FF1F24E6FF1F30E6FF1FA80100204B
:1044300020E6FF1F2AE6FF1FF0B557464E464546C9
:10444000E0B486B0B24B1B78022B08D0B04B1B787F
:10445000032B04D0AE4B1B78042B00D04CE1AD4BAA
:104460001B78002B01D106F0D5FAA94CA068616831
:10447000FCF786FFF8218905FCF758FE8046237873
:10448000022B03D02378032B00D0F4E0A24B1B783F
:10449000002B10D0A1480BF067FC0B280BD903AC04
:1044A0009E48211C0C220BF0F5FB00229A4B1A703F
:1044B0009B4B23CC23C3984B1B78002B15D1994BD6
:1044C0001B78002B11D095480BF04EFC0B280CD913
:1044D00003AC9248211C0C220BF0DCFB0022914B18
:1044E0001A708F4B0C3307CC07C38B4B1B78002BF8
:1044F00000D001E18B4B1B78002B00D0FCE08748FB
:104500000BF032FC0B2800D8F6E0834B1B78002B15
:1045100000D0F1E0834B1B78002B00D0ECE07F480B
:1045200003A90C220BF0B6FB7D4B9946DC681D6994
:10453000196800915A680192201C291C009A019B5D
:10454000801A9941FCF754FA704B6F4AFDF77CFCD6
:10455000FEF7A0FF8246039E049F301C391C001BFF
:10456000A941FCF745FA694B674AFDF76DFCFEF778
:1045700091FF041C301C391C009A019B801A994140
:10458000FCF736FA614B604AFDF75EFCFEF782FFEE
:10459000061C4B465D699968281CFCF7F1FE5146E4
:1045A000FCF7E0FB071C0598291CFCF7E9FE211C21
:1045B000FCF7D8FB051C564B1B78022B11D1381C7D
:1045C000211CFCF7B3FD041C281C5146FCF7AEFD72
:1045D000011C201CFCF75AFA311CFCF7C3FB071C1A
:1045E00009E0391CFCF7CCFE011CFCF74FFA311C2A
:1045F000FCF7B8FB071CFE24A405012500264A4849
:104600008146A2461CE0201C4146FCF78FFD391C68
:10461000FCF7ECF800280AD1802109066018414611
:10462000FCF784FD391CFCF7F5F8002800D02E4378
:104630002DB26D00ADB2201C5146FCF727FA041CC8
:10464000201C4946FCF7C8F80028DCD1381C0021A2
:10465000FCF7C2F8002801D07642B6B230B201F0C1
:10466000F9FB2F4B1A1C191C0C3131C931C203AB99
:1046700031CB31C240E029480BF076FB0B283BD907
:10468000264803A90C220BF005FB059FFE24A40578
:104690000125002624498946A2461CE0201C4146EB
:1046A000FCF744FD391CFCF7A1F800280AD1802250
:1046B0001206A0184146FCF739FD391CFCF7AAF890
:1046C000002800D02E432DB26D00ADB2201C514603
:1046D000FCF7DCF9041C201C4946FCF77DF8002897
:1046E000DCD1381C0021FCF777F8002801D0764295
:1046F000B6B230B201F0AEFB06B01CBC9046994693
:10470000A246F0BDC046C0460000000080842E4195
:1047100030EAFF1F42EAFF1F40EAFF1FD8090020CE
:10472000C003002041EAFF1F00001041C046C04600
:1047300008B5FFF781FE08BD38B5041C43021B4DC8
:10474000ED18682008F030F800282ED02B1C6833B4
:10475000011C5831181C50220BF036FEB023EA5AC7
:10476000134B1A80114A630200249C54D3185C60D6
:10477000FA229200DA60002001F0A0FB0D4B1C70C1
:104780005C7000225A609A605C80DC600A4B0022F8
:104790001A700A480BF0FAFA09480BF0F7FA0948C0
:1047A0000BF0F4FA08480BF0F1FA38BD30E6FF1FC1
:1047B00028E6FF1F30EAFF1F42EAFF1F000A002021
:1047C000A80100202C110020D8090020F8B5642091
:1047D00056490AF01DFA564C201C03F017FD012320
:1047E000237000226270A270E370A371237203230E
:1047F0002371042363714F4D281C211C03F0AAFC74
:104800002B6A402293432B62281C032103F01CFDDA
:10481000281C03F077FD002802D0474803F066FC0F
:10482000464B17221A6000221A715A71414B196ABD
:1048300004220A431A62424B9A783F218A43282174
:104840000A439A70997880220A439A703D4D3E4CF3
:10485000281C211C022203F0EFFF281C3B490022E8
:1048600004F09EF896235B00E158802212060A436A
:10487000E250E158364A0A40802189050A43E25055
:10488000344AC0239B00D0583349014080200004A3
:104890000143D150314B1968802252040A431A60F7
:1048A0001A68802189040A431A6010232C4A136075
:1048B0002C4A13602C4A2D4BD4582D482040D05000
:1048C000D0580143D15009F0D5F901F08BF901F02E
:1048D00003FDC024E40027482749221C0BF084F97B
:1048E00026482749802252000BF07EF925482649A8
:1048F000802292000BF078F924482549221C0BF005
:1049000073F90024234E00250D270CE06302F318F1
:1049100060335D709D70DD701D715F719D71E0B2DF
:10492000FFF70AFF0134012CF0DDF8BD113F000054
:10493000180B002000B00340B0190100240B002028
:1049400000100240F0090020008000407143000088
:10495000FFFFFFDF00E100E0FFFF00FF3C800440BD
:104960000080034000900340007004400C100000E1
:10497000FFFFFFFE000A00202C0B0020A8010020F2
:10498000180A00202C110020C0010020D8090020A6
:10499000D803002030E6FF1FF0B5474680B4071C5F
:1049A0008846161C06AB03CB1D7809AB1C787648ED
:1049B0000BF0ECF975480BF0E9F975480BF0E6F9E6
:1049C00074480BF0E3F97B027349C9180020887022
:1049D0000B1C6033187042464A60CE60069A079BF3
:1049E0008A61CB610D724C70002200230A654B6511
:1049F0000B1C58330C221A7001225A70D880E131F6
:104A0000FF3108604860301CFCF7ACFEFEF7F0FC9C
:104A10005A4B594AFDF782FE594A5A4BFDF714FA90
:104A2000FEF738FDFC218905FCF730F8FBF762FF43
:104A30005A4B18601B68002B02D10122574B1A6099
:104A4000564B1A6880235B009A4202D91A1C534BBA
:104A50001A607A02504B9A18F8235B00D41800238E
:104A6000E380F932FF3253804D48311CFBF7B4FD2F
:104A700080B2A080A3889BB2002B11D07B02464A53
:104A8000D318A18889B2FC2040001A1811801E6139
:104A900013889BB24348311C321C03F027FB20E0F3
:104AA0007B023D4AD318F933FF3300221A80301CB1
:104AB0003B49FBF791FD041C301C3949FBF7D0FD45
:104AC000002900D00134301C211CFBF785FD011C9E
:104AD0007B02314AD31818613348321C231C03F07F
:104AE00005FB7B022C4AD318F133FF339A887243BB
:104AF0002E4B9A4208D87B02274AD318F133FF3352
:104B00009A88013292B29A807B02234AD318F133F9
:104B1000FF339B8873439E1B254B1E6001D50022EB
:104B20001A601E4B1968234803F0E0FA22484146F8
:104B300003F0DCFA2148391C03F0D8FA0022204B9C
:104B40001A70204B1A70204908680B791B01C31892
:104B50000933FF3358688021C90501435960012397
:104B60001A490B701A490B701A490A707F020A4AD7
:104B7000BB5404BC9046F0BD7B14AE47E17A943F31
:104B80000000000000C05240000A0020A8010020E0
:104B90002C110020D809002030E6FF1F08E0FF1F7D
:104BA000E8800000D4190100101A0100E78000001D
:104BB0001CE6FF1F481A0100601A0100701A01006C
:104BC00020E6FF1F2AE6FF1FF009002040EAFF1F32
:104BD00041EAFF1F42EAFF1FF8B5041C124E4502CE
:104BE0000027AF55114A1F2313601148002103F01D
:104BF00045FB104803F038FF0F4B1F700F48211C76
:104C000003F074FA751960352B78002B03D00C482B
:104C1000211C03F06BFA0B4B1B78002B03D00A48C6
:104C2000211C03F063FAF8BD30E6FF1F240B0020BF
:104C300000B00340F00900202AE6FF1F881A010097
:104C4000A01A010020E6FF1FC81A0100CBB2062BF4
:104C500027D89900144B5B589F464002134B1818F5
:104C6000603040781EE04002104B181860308078A9
:104C700018E040020D4B18186030C07812E0400276
:104C80000A4B1818603000790CE04002074B1818E6
:104C90006030407906E04002044B1818603080799B
:104CA00000E000207047C0465419010030E6FF1FA5
:104CB00070B51E1C049D0024FF2001E0285501341E
:104CC0001F2CFBDD012913D1B218802A12D100213B
:104CD000002402E00878444001317E29FADD281CD6
:104CE0000021321C0BF070FB7F23EC54B0B202E0C9
:104CF000202000E0202000B270BDC046081C704794
:104D000040026830014B18187047C04630E6FF1F5C
:104D100008B54002B830044B1818002160220BF08F
:104D20005CFB002008BDC04630E6FF1FF0B5072938
:104D300010D8094C4D006B189B0040021B18E3185B
:104D40001E1CB83601273770C0331A600023736009
:104D5000002000E03220F0BD30E6FF1F08B5072933
:104D60000DD84B005918890040020918B831054B7D
:104D70005918101C0C220BF027FB002000E03220F9
:104D800008BDC04630E6FF1FF0B585B0071C0E1CFD
:104D9000141C0B78072B0AD1062001F08FF823484A
:104DA00000F046FF002001F089F830203CE0FFF7DA
:104DB00013FFE26A61680024002500940195012335
:104DC000029300230393381CFFF7E6FD3378002B92
:104DD00018D0012B18D0022B18D0032B18D0042B7D
:104DE00018D0052B18D0062B18D036201CE0E30075
:104DF0001B1B9B0058191930FF30301809F042F97D
:104E000001340EE000240AE0002408E0002406E05B
:104E1000002404E0002402E0002400E00024044E0A
:104E20007D02062CE3DD302005B0F0BD2CE6FF1F2F
:104E300030E6FF1F00000000F0B55F4656464D46C5
:104E40004446F0B48DB0824603910592061C43029D
:104E5000C94AD21891460B78072B39D1C74C217813
:104E6000C74803F043F96178C64803F03FF9A178D9
:104E7000C54803F03BF9E178C44803F037F9FE2256
:104E80009205CC234846C2500125C423C55420783E
:104E9000FCF768FCD8234946C850D023CD5460782D
:104EA000FCF760FCE4234A46D050DC23D554A078BC
:104EB000FCF758FCF0234E46F050E823F554E07818
:104EC000FCF750FCFC23F050F423F5540020B7E22B
:104ED000AF480AF049FF0C21FBF77EFB84B2AD48D6
:104EE0000AF042FF4508ADB2AB480AF03DFF80082A
:104EF00080B2834623B2002B00DC96E22BB2002B5B
:104F000000DC94E203B2002B00DC92E223B22AB26E
:104F1000934200DC251C584603B22AB2934200DBC0
:104F2000AB460027944D76028C2149007318EB188C
:104F3000049370E009AC9648211C0C220AF0AAFEEA
:104F400008AA90469348111C02220AF0A3FE924838
:104F500007A904220AF09EFE43461888FCF702FCCB
:104F6000021C0498022109F097F89A204000331897
:104F70005B1998460021605EFCF798FB021C4046D6
:104F8000022109F089F8A8225200B3185B1998464B
:104F90000223E05EFCF78AFB021C4046022109F076
:104FA0007BF8B620400033185B1998460421605EF8
:104FB000FCF77CFB021C4046022109F06DF8C4227C
:104FC0005200B3185B1998460623E05EFCF76EFBAF
:104FD000021C4046022109F05FF8D220400033183D
:104FE0005B1998460821605EFCF760FB021C404696
:104FF000022109F051F8E0225200B3185B199846DB
:105000000A23E05EFCF752FB021C4046022109F035
:1050100043F80137BFB23BB25C4622B2934289DB10
:1050200056467302544AD3181933FF339888FCF755
:105030003DFB059E3469211CFBF7CEFB002800D008
:10504000F9E1039E3378012B5ED8059E33785A0030
:10505000D3189B004B44C0331C6033785A00D318DC
:105060009B004B44B83301221A7033780133504609
:105070004102414841182931FF315800C3189B00B3
:105080004B44C0334C681C603378013309685800C6
:10509000C3189B004B44B83359603378013359002F
:1050A000CB189B004B44B8331A703378042B00D0D4
:1050B000C3E1C0234E46F158E423F358D822B05838
:1050C000FC22B25884246400251C4D448A267600B4
:1050D000341C4C440095019409F0A8FA002809D129
:1050E000052380225200484683548622520083546E
:1050F0000020A5E101238022520049468B548622DC
:1051000052008B5400209BE1022B47D1CC234A460E
:10511000D4500124C423D45456467302164AD318DB
:105120002933FF3398464846876F5868391CFBF788
:10513000FDFF4946CD6F291CFBF7A8FC061CD823B0
:105140004A46D05043461968381CFBF7EFFFD4237A
:105150004946C850D023CC54C023C858311CFCF752
:105160000FF9011C281CFBF791FCE4234A46D050A0
:10517000DC23D454002063E130E6FF1F2CE6FF1F40
:10518000F41A0100081B01001C1B0100301B010068
:10519000000A0020A80100202C110020032B00D0C1
:1051A000BDE0CC234E46F4500124C423F4545046B1
:1051B0004302AB4DED18A22149006E187068FEF74E
:1051C00017F9A44BA24AFDF7A9FAFEF763F9D82311
:1051D0004A46D0503068FEF70BF99E4B9C4AFDF7CB
:1051E0009DFAFEF757F9D4234E46F050D023F454DD
:1051F000B02040002E187068FEF7FAF8954B944ADC
:10520000FDF78CFAFEF746F9E4234946C8503068AA
:10521000FEF7EEF88F4B8E4AFDF780FAFEF73AF96B
:10522000E0234A46D050DC23D454BE235B00EE1862
:105230007068FEF7DDF8874B854AFDF76FFAFEF7D9
:1052400029F9F0234946C8503068FEF7D1F8814B60
:105250007F4AFDF763FAFEF71DF9EC234A46D0506A
:10526000E823D454CC235B00EE187068FEF7C0F836
:10527000794A7A4BFDF752FAFEF70CF9FC234946BE
:10528000C8503068FEF7B4F8734A744BFDF746FA1D
:10529000FEF700F9F8234A46D050F423D454DA2319
:1052A0005B00EE187068FEF7A3F86B4A6B4BFDF7D6
:1052B00035FAFEF7EFF884235B004946C8503068A2
:1052C000FEF796F8644A654BFDF728FAFEF7E2F818
:1052D00082235B004A46D05080235B00D454D135F2
:1052E000FF356868FEF784F85B4A5C4BFDF716FAF9
:1052F000FEF7D0F88A235B004E46F0502868FEF790
:1053000077F8554A554BFDF709FAFEF7C3F888239D
:105310005B00F05086235B00F454002090E0042BE7
:105320002AD1CC234846C4500124C423C454514636
:105330004B024B4EF618CC225200B71880367868D4
:105340003168FBF7F3FE051CD8234846C550386882
:105350003168FBF7EBFED4234946C850D023CC5428
:10536000C023C858291CFCF70BF8E4234A46D05048
:10537000DC23D454002063E0052B29D1CC234E46F6
:10538000F4500124C423F45450464302344EF6181A
:10539000DA2149007718883678683168FBF7C6FE4D
:1053A000051CD8234A46D05038683168FBF7BEFE4A
:1053B000D4234E46F050D023F454C023F058291C77
:1053C000FBF7DEFFE423F050DC23F454002037E049
:1053D000062B34D1CC234846C4500124C423C454E2
:1053E00051464B021E4EF618E8225200B71890366E
:1053F00078683168FBF79AFE051CD8234846C550EB
:1054000038683168FBF792FED4234946C850D02350
:10541000CC54C023C858291CFBF7B2FFE4234A46EA
:10542000D050DC23D45400200AE0302008E03020A3
:1054300006E0302004E0302002E0002000E03620CA
:105440000DB03CBC90469946A246AB46F0BDC04666
:105450004AFDC00EAF6F513FC397923A019D733F13
:1054600030E6FF1FC046C046F8B55F4656464D467B
:105470004446F0B4051C0E1C43027D4CE4180B7826
:10548000012B1ED884235B00E358A3678A235B00AB
:10549000E358E3670A787748291C02F027FEA06FDB
:1054A000FDF7A6FF021C0B1C734802F01FFEE06F05
:1054B000FDF79EFF021C0B1C704802F017FE002037
:1054C000CCE0022B11D1E423E358E3670A78694862
:1054D000291C02F00BFEE06FFDF78AFF021C0B1C7B
:1054E000664802F003FE0020B8E0032B72D1D823F7
:1054F000E358802212069B189C229346A350E42373
:10550000E358802212069B18A4229246A350F0234F
:10551000E358802212069B18AC229146A350FC232C
:10552000E358802212069B1884229046A3508423BD
:105530005B00E358802212069B188C27E3518A23D4
:105540005B00E058FDF754FF021C0B1C474946481E
:10555000FDF774FBFDF79EFF9423E0503278454839
:10556000291C02F0C3FD5A46A058FDF741FF021C5A
:105570000B1C434802F0BAFD5346E058FDF738FFD4
:10558000021C0B1C3F4802F0B1FD4A46A058FDF733
:105590002FFF021C0B1C3C4802F0A8FD4346E058BC
:1055A000FDF726FF021C0B1C384802F09FFDE05956
:1055B000FDF71EFF021C0B1C354802F097FD9422DC
:1055C000A058FDF715FF021C0B1C324802F08EFD9F
:1055D000002043E0042B12D1E423E3588427E35155
:1055E0000A782448291C02F081FDE059FDF700FFEC
:1055F000021C0B1C284802F079FD00202EE0052B30
:1056000012D1E423E3588C27E3510A781948291C66
:1056100002F06CFDE059FDF7EBFE021C0B1C1F486D
:1056200002F064FD002019E0062B12D1E423E358B8
:105630009427E3510A780F48291C02F057FDE059DE
:10564000FDF7D6FE021C0B1C154802F04FFD002092
:1056500004E0072B01D0322000E000203CBC904643
:105660009946A246AB46F8BD05A3923A019D234058
:1056700030E6FF1F441B0100741B0100881B010062
:105680009C1B0100B01B0100C41B0100D81B0100C2
:10569000EC1B0100001C0100141C0100281C01006F
:1056A0003C1C0100C046C046F0B585B0071C0C1C70
:1056B000161C0BA90D782178022957D15922A25C1A
:1056C000002A10D00093231C5A3301930133029314
:1056D0000133039360682A49E268331C05F008FE31
:1056E00000225923E2545823E35C002B16D0002DEE
:1056F00003D000225823E25410E0A278009261689F
:1057000001910293381C226D636D05F097FDA3781B
:105710000133A37000225823E2542EE019480AF006
:1057200023FB00B20C21FAF757FF85B216480AF0A6
:105730001BFB06B27608B6B214480AF015FB00B29D
:10574000800880B22DB25B23E35C9D4210DB36B251
:10575000B3420FDC00B283420EDC0C9A1380381C7B
:105760000021FF220AF039FE094806E0002004E08B
:10577000002002E0002000E0002000B205B0F0BDF3
:10578000A0860100000A0020A80100202C110020A2
:10579000FFFF000000000000F0B55F46564645469A
:1057A000E0B48CB00D1C6B460022DA821633400246
:1057B000974E36181221009101920293281C311C39
:1057C00009220423FFF770FF002800DB15E1002405
:1057D0000027904A9246904B9846F4E05E23F25A96
:1057E0000132F252504608A90C220AF053FA404600
:1057F00007A902220AF04EFA884806A904220AF0F4
:1058000049FA726892071AD50698FDF7F1FD7F4BA9
:105810007D4AFCF783FFFDF73DFE0B90B023F35A62
:10582000012B03D180231B06C0180B9038B2281817
:1058300009300BA904220AF0C7FD0437BFB2726811
:10584000520716D5B36F9B4607AB1888FBF72EFFA0
:10585000011C5846FBF76AFCF16FFBF717F90B9038
:1058600038B2281809300BA904220AF0ADFD04371C
:10587000BFB27268120718D58023F3589B4608AB55
:105880000622985EFBF712FF5946FBF74FFC842374
:10589000F158FBF7FBF80B9038B2281809300BA928
:1058A00004220AF091FD0437BFB27368DB0618D5F5
:1058B0008823F3589B4608AB0822985EFBF7F6FE58
:1058C0005946FBF733FC8C23F158FBF7DFF80B90BC
:1058D00038B2281809300BA904220AF075FD0437E4
:1058E000BFB273689B0618D59023F3589B4608AB4C
:1058F0000A22985EFBF7DAFE5946FBF717FC942361
:10590000F158FBF7C3F80B9038B2281809300BA9EF
:1059100004220AF059FD0437BFB273685B0618D53C
:105920009823F3589B4608AB0022985EFBF7BEFE17
:105930005946FBF7FBFB9C23F158FBF7A7F80B90AC
:1059400038B2281809300BA904220AF03DFD0437AB
:10595000BFB273681B0618D5A023F3589B4608AB4B
:105960000222985EFBF7A2FE5946FBF7DFFBA42359
:10597000F158FBF78BF80B9038B2281809300BA9B7
:1059800004220AF021FD0437BFB27368DB0518D585
:10599000A823F3589B4608AB0422985EFBF786FECB
:1059A0005946FBF7C3FBAC23F158FBF76FF80B909C
:1059B00038B2281809300BA904220AF005FD043773
:1059C000BFB2631C9CB26B46D98A23B20AB293421F
:1059D00000DA03E7002F0FD0C9B25A23F25C7378C4
:1059E000B078441CB470B4880090019406200290F2
:1059F000281C05F057FC00E0002000B20CB01CBCD5
:105A000090469A46A346F0BDDFDA7892520F303FB7
:105A100030E6FF1F000A0020A80100202C11002002
:105A20000020704738B5041C022505700130264956
:105A30000AF053FD201C113024490AF04EFD201CB1
:105A4000213023490AF049FD002100234222A152BE
:105A50004422A1524622A3544722A354A564A8225B
:105A6000A35496225200E26422655822A3540022D5
:105A7000002322666366174BA366174BE366174A3B
:105A8000226700236367A267E36780202250842295
:105A9000A350134A882022508C202350902022505B
:105AA00094202350982022509C22A350A023E152FE
:105AB0000023002203E0E15C8A18D2B20133AF2B4D
:105AC000F9D9A823E25438BD501C01005C1C010028
:105AD000681C01004E2B053B000080C20AE89C3B7D
:105AE000787D8B3A70B5051C0678022E1AD0012EEF
:105AF0000FD10022A023C25202230370002303E02F
:105B0000EC5CA218D2B20133AF2BF9D9A823EA5426
:105B100001E0FFF787FF2A780348311C02F0E6FA1C
:105B2000012000E0002070BD7C1C01000122044B1C
:105B30009A600422034B9A600222034B9A607047DA
:105B400080F00F40C0F00F4040F00F400120704740
:105B5000430018180001014B181870477019010014
:105B600038B50D1C141C00231370002809D1064BF6
:105B70001888FDF709FC2860696001232370002064
:105B800000E0362038BDC04628E6FF1F10B5141CC3
:105B90000023137000281FD108684968FAF7C4FE73
:105BA00080B20E4B188000230D4904E05A028A1877
:105BB000B03210800133012BF8DD682006F002FEC0
:105BC000A030064902220AF0FFFB682006F018FE0A
:105BD00001232370002000E0362010BD28E6FF1FBF
:105BE00030E6FF1F10B582B0684603F069FE00235F
:105BF0006A461371D37053719370537013700223FC
:105C00009371094C201C694603F01EFE0923A36012
:105C1000064AC7239B00D158FF208143C02001437F
:105C2000D15002B010BDC0460000044000E100E0C9
:105C3000F8B5041C0125057045708570C570534882
:105C40000121534A03F044FAFA20400006F08CFB8D
:105C5000504E514F301C00213A1C03F039FA301CD1
:105C600001213A1C03F034FA012006F07DFB336970
:105C70001D4204D100232370484802F037FA454BF7
:105C80001B699A0704D400236370454802F02EFA7A
:105C9000404D281C0121404A03F01AFA281C00211B
:105CA000404A03F015FA012006F05EFB2B699A07C3
:105CB00004D5002363703C4802F018FA354D281CC7
:105CC0000021354A03F004FA281C0121354A03F06B
:105CD000FFF9012006F048FB2B69DA0704D5002301
:105CE0002370324802F002FA314D2B4E281C192144
:105CF000321C03F0EDF9281C1821321C03F0E8F9DE
:105D0000012006F031FB2B699A0104D40023A37013
:105D1000284802F0EBF9264B1B69DA0104D4002372
:105D2000E370254802F0E2F9214D281C18211A4A97
:105D300003F0CEF9281C19211A4A03F0C9F90120F1
:105D400006F012FB2B69DA0104D50023E3701B482F
:105D500002F0CCF9164D281C19210F4A03F0B8F9AE
:105D6000281C18210F4A03F0B3F9012006F0FCFAB1
:105D70002B699A0104D50023A370114802F0B6F9EB
:105D800002480121074A03F0A3F9F8BD40F00F4093
:105D9000C4210100C0F00F4040200100BC200100E0
:105DA000D0200100A8210100E4200100F82001001A
:105DB00000F10F400C2101002021010034210100DD
:105DC00048210100F0B54F4680B4061C00251D4B4C
:105DD00099461F1C20E033B2002B05DA1A48002137
